:100000000C94BB080C94E8080C94E8080C94E808DD
:100010000C94E8080C94E8080C94E8080C94E808A0
:100020000C94E8080C94E8080C94E8080C94E80890
:100030000C9434480C94E8080C94E8080C94E808F4
:100040000C94E8080C948B410C94E8080C94E80894
:100050000C94E8080C94E8080C94E8080C94E80860
:100060000C94E8080C943F480C9466480C94E808FB
:100070000C94E8080C94E8080C94E8080C94E80840
:100080000C94E8080C94E8080C94E8080C94E80830
:100090000C94E8080C94E8080C94E8080C94E80820
:1000A0000C94E8080C94E8080C94E8080C94E80810
:1000B0000C94E8080C94E8080C94E8080C94E80800
:1000C0000C94E8080C94E8080C94E8080C94E808F0
:1000D0000C94E8080C94E8080C94E8080C94E808E0
:1000E0000C94E8080C94252D0C9407350C949A2E4A
:1000F0000C94EE420C94B3350C942C430C94671E74
:100100000C94A52E0C94702B0C94FB1B0C943D1C92
:100110000C94BB0A0C9496190C94FC440C94AD23DB
:100120000C943C320C945A2F0C947B1F0C94FF2D92
:100130000C949F2C0C94441A0C944A1D0C94EA1DA8
:100140000C94E9250C94AC0A0C94D82B0C94053132
:100150000C9479210C94AC250C944C210C94CC1D5E
:100160000C94082F0C94411F0C9479250C949F2F0C
:100170000C94C61F0C940B0A0C945C240C946A0912
:100180000C949E1A0C9451210C94E6200C94312C62
:100190000C94252E0C94FB1A0C943C350C94A3441F
:1001A0000C94771C0C94B83D0C944D260C9454235D
:1001B0000C94B3430C949C300C946B090C946944DC
:1001C0000C941A2E0C94CB300C9474450C94AF0AFA
:1001D0000C947C340C9445290C94AC280C94F61C9B
:1001E0000C9408090C9435360C94260E0C94C11905
:1001F0000C94BF310C9464220C94701C0C940B2B47
:100200000C94CF450C944D1D0C9487380C944420CD
:100210000C94F52F0C942E1B0C94C2260C945019A0
:100220000C94C62E0C940E1F0C94CD320C940C37EB
:100230000C9407280C9442240C94C3220C94921C16
:100240000C94130E0C94A5200C942D300C940825BE
:100250000C945C300C94C2270C94DC210C94F9199A
:100260000C9449340C9446250C94F6230C944D09B7
:100270000C944E2B0C941A450C94E40D0C94EA0843
:100280000400000204000204020400070402070440
:10029000000002040402040000040400000004043E
:1002A0000404070407040002040404000404000416
:1002B0000401070400040200000000000000060022
:1002C000020278DAAD590B6FDBC811FE2B7B02827C
:1002D000F60A399028520F174161CBCE9D9B38F119
:1002E000457153A028089A5C490BF3755CD28F1EA8
:1002F000FCDF3BB3B32F5272EE50344020EEEECC15
:10030000EEECECCC370FFF36BAEB449EC50FBC9138
:10031000A22AE5E874B44BD353F6E79FD6EB1FD976
:1003200034781BBC9DB03B5176ADC8254E7FBA6575
:10033000E77AF8230BDE8693D17894564591941989
:1003400030FF364AF2BC4A9396C795C8244BABAEF1
:100350006CDFBD4947A7CB319CD4B670449CA4F751
:100360000C5661DA5B0F171E41961982BA92EA4762
:1003700094EFDE74ACEEF23CEE6A625839865F3B75
:10038000DE3CDB3D41807BA46EB86CE356A4F79263
:10039000466D9394B2106D6C4E65A2847BEBF34175
:1003A000C034E74913CB7DD766D563393A0DF06A7F
:1003B000E556EC40A2A77C1646E608598B983E47C6
:1003C000A78B89A32A93BCDAC5A2B4D22BB147A7C5
:1003D00033B79316D950D030767A88DC766A923764
:1003E000FDCD7A3A88169638133BD126795C75EDA7
:1003F00080E121C93B8EE38C6F932E6F633B5124C8
:100400004F71D635490B2FAFE49CBAFD38BC675B02
:10041000D5BDBDD2DEE1C1DC12EFB3305C2C278646
:10042000B891B13E9B9B8F2CB45F91FD9ADBAF8559
:10043000FDE279F26C1F6D743A9FD943449032A368
:10044000F4D04D1775B70A227B3650B9A7711296B2
:10045000BCAAC513CF07BAC9923689A5F80FA863FD
:10046000DF819DB731EAC4B319C9614A949E4451F2
:100470006437AD1F8B23FA4E9FC18EDC1E5ADBFB07
:100480006EA87F98397880D0490C3636DC185DA785
:10049000150F3CDE8BDD5EDD70B6F4E9C100773907
:1004A0003F345266D7E2F6B9E6A49B598FD318FDC4
:1004B0003166BD141772F7EECD5FC0CB677DDE47A6
:1004C000D1EE410D712AEDFBCC9C21C976B10AEC2D
:1004D000F3A4D634649ADFDB6F91D9CFE7328DFB7A
:1004E00056C0D2228B0F0C63E29DC0EBDAF9090EE5
:1004F000636DAF9968CC27F9BA2276545D2EB9B7EF
:1005000069E02ED6EE795354E082F5518DFACB4E48
:10051000A97377EDB648BBA4B1B6D13CC507FECBF5
:100520005A3B8996D78A82938539B4681BD48753FE
:100530002B5C3AE3771DD873558F4E576604BBEC9E
:10054000942DD3FB4C2D59C31380D226E30D9E0767
:10055000B8DA909F0786E0B1112D3FA040A325C2D5
:10056000E978C40BDEEC78993EC7080820044C11EA
:1005700038C4FBAAE007B02B93A2F61D408F2DE8EC
:10058000F6611944778044D7B53A6EC46EC71BBC78
:100590008444FF40CC89DCE10AF441A6A4E556413D
:1005A00041381E6D05C030B8744C3A64699392C5E9
:1005B0008C473BF066252728598F140DB8030DBBD7
:1005C0001A5F01FC703CD298164B382F060BB49082
:1005D0008DDFA4E7793020C3273064EE39E6A044EC
:1005E00084A5A2CAC4F63986B7B67B355CB914D3E4
:1005F000910724C055ED652B62A337ECD3E35C9CD7
:10060000730D1A132254EC9DF49110860AC74047CB
:10061000F88BCFCB25D97A18382E596DDBC7A4E1DA
:100620003E3BF8A7F5C92C319FC7769A47B493B6DD
:10063000A5E1F543BC7EC6CB162ECFAAED160E540F
:100640004E6D431EAC1B78566AB4AF19CDBC95AE47
:10065000CEDC4B535EB0EFBC63227833328941B0BD
:100660003E9E0F80D8AB0183B2A5CE81D87C6909AC
:100670008681FD7F34F6C219BB467F3782E464076A
:100680008C7B9EDE7BE9C06C6A641864035682BA78
:10069000023C199EEF85ABB9D96010285F53CB227D
:1006A0001A300CD5B2B08A3E0839AFA45EE85310B8
:1006B00061C496EEB408CC06C740F6953D3CD5F52E
:1006C0003447030077F0F9CC53DC9CEEDDF16399FD
:1006D000913DA3F223FB34322C83C06EC9ED6B81B4
:1006E000555B628C24D6E7F089083C8D81EF95B389
:1006F000C0AF0078829BAB9C0294B0D09F8A9F5081
:1007000069781E30806B238D7F87415A0772CF0E28
:1007100088D40D542262F7EC6525C03427A6923F99
:10072000691120565AE7150DC1E994888C3E7E2741
:10073000C301AD806D78C90626DC5B67B3CE59175F
:1007400053A2F3DCDD5B9D8566B5076838A5010D16
:10075000A0947B70042C73C7720CCD0A212B83618B
:100760004525C5B12CE460D3B996E3F57BCCC00A2E
:1007700028C1F95E9C88567DAAE361225A22954AD7
:1007800065628C450071021343EB78D395235011B9
:1007900010AD976224B321D30BA0C0015BEA44A43F
:1007A000A76A85D4369010D6C28B686ED421BAEC75
:1007B000110F0093583ABAD64F70785D353ABA9215
:1007C000F7AAB13512FE540B78123F96AFEC4E8368
:1007D0005BF844E02684FCC7FCD8F381F0C5244DC7
:1007E00058859E5DACE3EBB37F622A8439DDF9ED79
:1007F00026BEB9FAB441C4820AF7E67C36BE390F88
:10080000E0FF74E42DB68F6AF16232BEB9C085F59F
:10081000C7CFEB0FF1FB2F97BFA0BB4CD4BFF1E8C4
:100820007A7D0B54495BF05D124473AC7F6FBE5D03
:10083000D3690116075F2ED79757FFB88CBF5D7D30
:10084000BAF8FC0D9F2DC0C9CDE51798242978234F
:10085000921CCFBA84B32EF12C58BD3AFB189F9F3F
:10086000DD5EE03674D4E6EBD9D74DBCB9BDDEFC15
:10087000022B9B4B5C99BF6006D4414EA6AA06553D
:1008800073EB488F9FEA0E13A0019BC6F1CDD9648C
:1008900074FAAFC978F96F10F31CBF97F4BDC66F37
:1008A000000135B8C001E44E6A708903A858D5E04C
:1008B0003D0E42CDFF931AE80D7EC641A437F83BAA
:1008C0000E169AE7833A46F37C5403E479E9410330
:1008D000A4CCAA5D309DCD6620F17894C868122E14
:1008E00032950EB4398F26D3E00E2EACB9F4F5D480
:1008F000FBE1F530260934C10652DF5864FAD1997C
:10090000328E2D05532A51CF72B4F16766D2C28C54
:1009100000739D94ACAC5A06C6CE103018601C0112
:100920001B5336CB1EF702BEC9F624ABC17BE024B5
:100930004264C3DB49AE625B3365DBAA6160067F5C
:10094000356321713553F36A4A928B01EB9F5A0C40
:100950000850F3EC402028249216A9132D26557830
:1009600094E96A6289A468F2948FD3AC8A1D6A6B99
:10097000909497CC1441961F8C6E4D7D1956270D7F
:10098000981CE34D53352AD5350B0D8710265BD5C2
:100990009D799FC07D33D6564C210556DBCAC1A92F
:1009A000357345019699F685EBA6509CA34CC5502E
:1009B000E98690CAB2DD1C90A12849C1214852B1F4
:1009C00065168BEA811B6918D6E3E8D16ED956EF1C
:1009D000B65E27C43F58D749A23D7FE609000A64A6
:1009E000647658FE98592CB30D6E048BDEBCCE6D28
:1009F000D2BDA8356338ED13C01374B5BB93A40200
:100A0000DE50F4B21B6F174CECAF9327B4D3A55153
:100A10002815D5D79052273BCEA0DA8258641E0CF9
:100A2000B6BC1612AD49427A987539567BC08CA176
:100A30009B69545486CF1F38BE0446EDD719F6493A
:100A4000932963D7D458535EA3FA5536C3E0ABD984
:100A5000E6D523A5439FC0CA1346D741F752A81233
:100A60000E16C0EE69010B577F419435250DD4B0A9
:100A7000514B254AEAA643859ED6FAEBA6DA813287
:100A80000B103DC1BB6D21EA8294A06C8E8E8BCD84
:100A9000B12F5C5F0A8D153D0B8E4155C333A025E8
:100AA0006359B3B10407DA618F22CF2118A5B05F73
:100AB000AFFD42E1D5715A0D7D870323D806BC9066
:100AC000DE50098014A2E80A33679C03A5322D1674
:100AD00055ECC166CA6F1506F91DC78D76E4B6AA36
:100AE000D83651B7A39B616DFBD53729541910AA8D
:100AF000A612B582BE2A7D2027C461C955AD7E5B92
:100B0000CAAEC658CCC9A9159262F3F45BD2A6FB53
:100B1000ACDA91167FA0724BB56FA10AE9CA7BD8F7
:100B2000181181BA82DEBC740B6099E4230019129B
:100B3000900E3D18A23CD4B352BFAFEBD21060551B
:100B4000650E18F7001B2477B9812E7B7DAA789952
:100B50004E3EA8293BA89C4FD967004F0880779844
:100B60002F6CB173227FA0B444759C2D8EEA3E7425
:100B700046ED1089F5670908412693C2322E61823D
:100B800007E0AF7A8B9FCED61FA873657A372A4FBE
:100B9000436DE64983E104F3D223C9083E21193CA1
:100BA00076C23402933B610A06D1EAA05B84E10A73
:100BB0003286D97419452AFAE9C15C853F1ACC23DB
:100BC000650F3098CF17F03D7B795125430D70C1EB
:100BD000A9D7AEEB563F9F9408A265CA07D5F10985
:100BE000DAEAD13AD75537BA2633191B5506FE76BD
:100BF000779DF247C5B515DB0A7F73E175D4B10463
:100C0000384140B10573AF3F435B1EABA65613D7C7
:100C1000CCEF71245E35CCD40ADD67859D3A55331F
:100C2000B9D47469BB7710507567475D50358070D3
:100C3000CE589AAA0800E97CB9972172AB1AFB7BBF
:100C4000426B0EFD11BBD34F6681EBBA497049DB95
:100C5000445BCE5DD3AAB7F3BE82AA76777886DFEF
:100C60001303F6A5EB03C5E6FD5DAA4C63AD95C085
:100C7000B55A3C52DB73217B788BA4D833720A615E
:100C8000C37C8A74B200A3315D803F6464A1A3FF7A
:100C9000FF195977C4C8303DB2AD21AD6F235C97C1
:100CA000A6AA3505BA5B011928C16F8E2EB16473EF
:100CB000506CFA3847EFBF9CF839EB1FD2C0DCE725
:100CC000F04A2E9F01E916C70AE583E7F59B21DE6E
:100CD0003B9F20DCF995E9EFD9C55465CC4DAB526B
:100CE000D8C592F267E98C597685FE91BF92CD4EB8
:100CF0005DAD392844A9F70679F8723140B6FE3B5C
:100D00001C75F68EC2957A9C134C194D797A780130
:100D10002C4C95F0A15F713AEF49135BFE1EED1666
:100D2000FBC8B042E056C932FDE9A4F317B1C6D002
:100D30007FFF849AEC6F2701D48CD3C9348C275160
:100D4000B00C56274993EECB2E1DBDFC171D42C794
:100D50002F8F0A00006840038C02671F078002661D
:100D600040038C02650B02870264400389026340E2
:100D7000038C02621C078F02611404960260170440
:100D80009A025F0A029E025E4002A3025D4003A037
:100D9000025C4002A3025B4002A3025A1003A502B8
:100DA000591104A802581104AC02570D02B00256A2
:100DB0000B01B702554001B202541204B302530BA7
:100DC00001B702521002B802511503BA02004002E4
:100DD000BD02500E02BF024F0901C1024E060000C3
:100DE00000000500000020002300260029002C0040
:100DF0002F0032000001000003010601090128292B
:100E00002A2B2C2D2E2F5051525354555657040037
:100E100000000004040000000004000000000000C6
:100E200000040000000000040002000004000400B0
:100E3000000407040400000404040000020200008F
:100E40000002040700040707040004040000040073
:100E50000202040404040400000400040404040462
:100E6000040400040002030400040400040004005D
:100E70000004000400000000000000000102010264
:100E8000720E5019020001000000AF0A03000100B9
:100E90000000AC0A040001000000260E050001005D
:100EA0000000130E06010001B702441A07000100FA
:100EB0000000E40D08010001710EF919090001009C
:100EC00000006A090A020101B202C1190B03010301
:100ED0006E0E4D090C0201026C0E96190D020002F5
:100EE000720E4C210E0200029E02671E0F030003C9
:100EF0006E0E2E1B100200026C0EFB1A110500056F
:100F0000670E9E1A120200029E027B1F130100014F
:100F1000710E5423140200026C0E411F15020002D0
:100F20009E020E1F16040004630E452917050005D6
:100F30005E0E642218010001710EAD23190800082D
:100F4000560EC61F1A030003530E42241B02000252
:100F50009E02F6231C0200026C0EA5201D04000454
:100F6000960244201E010001710E08251F0800088A
:100F70004B0EE620200200026C0EF61C210400033A
:100F8000A002AC2522030002A3024E2B2303000281
:100F9000A3020B2B240400049A025C242501000107
:100FA000710E462526030003480E51212705000334
:100FB000450EC22628040003420E4D2629030002D6
:100FC000A302E9252A0400049A0279212B010001D9
:100FD000710E79252C0300033F0E07282D03000313
:100FE000A502C3222E060006390EC2272F020002D8
:100FF0009E02C62E30050005340E082F3104000471
:10100000AC026944320200029E02CC1D330400038C
:10101000310E3C32340500052C0EA344350100018D
:10102000710ECD32360400038C02CB30370500053B
:10103000270EEE42380400049A025A2F39030003A7
:10104000480EFC443A030002A3027C343B03000236
:10105000A30249343C060006210E2C433D03000246
:10106000A3023C353E030002A30207353F080008F7
:10107000190EB34340060006210E1A45410500052E
:10108000140E7445420600060E0E9F2F4303000304
:10109000530EF52F44010001710EB33545030003D3
:1010A0006E0EB83D460200029E022D30470300023C
:1010B000A3023536480400049602053149030003B3
:1010C000530E5C304A010001710E87384B03000358
:1010D0006E0E0C374C0200029E029C304D00010047
:1010E0000000CF454E0F47004400450080013548C1
:1010F000004400450020010D880080008100800030
:101100000E8A008000810020000F8C00800081008A
:1011100008000CB300B000B10080033EB400B00082
:10112000B1002003239800900091008000249A00D1
:10113000900091002000259C009000910008003B49
:10114000A800A000A10080003CAA00A000A10020EF
:10115000003DAC00A000A10008005B280120012197
:101160000180005C2A012001210120005D2C01206A
:1011700001210108000011241FBECFEFD1E2DEBF24
:10118000CDBF00E00CBF14BE0FB6F894A8958091B7
:101190006000886180936000109260000FBE12E0D2
:1011A000A0E0B2E0EEE8F6E900E00BBF02C0079075
:1011B0000D92A233B107D9F723E0A2E3B2E001C058
:1011C0001D92AF39B207E1F70E9488410C94454B5C
:1011D0000C94000010922602EAE1F2E084819581ED
:1011E000A681B781AC01BD015659674E7F4F44833C
:1011F0005583668377839659A74EBF47809316021F
:1012000090931702A0931802B093190281E00895F9
:1012100080E00895CF92DF92EF92FF92CF93DF9319
:10122000A0914F02B0915002109771F111976D018A
:10123000E12CF12CC0914D02D0914E0220914C0234
:1012400030E0109741F1CE0140E050E0BA014F5F2D
:101250005F4F6F4F7F4FFC01820F931F91838083FD
:101260004C155D056E057F0590F3A29FF001A39FCD
:10127000F00DB29FF00D1124EC0FFD1F11821082B2
:10128000D0934B02C0934A02DF91CF91FF90EF9031
:10129000DF90CF900895FE01F1CFFC018081A48101
:1012A000B58140855185628573859FB7F8948130FB
:1012B00029F0823041F04C939FBF089511965C93C2
:1012C0004E939FBF08954D935D936D937C931397B9
:1012D0009FBF089508950F931F93FC01A489B589BA
:1012E00086898C9383A191E0892783A344815581CA
:1012F0006681778180FF12C0008511852285338544
:10130000400F511F621F731F82FD12C0448355831B
:101310006683778381E01F910F9108950485158579
:1013200026853785400F511F621F731F82FFEECF46
:101330000089118922893389872F40175107620755
:10134000830B87FDE3CF8BEB9AE093838283B90114
:10135000A801448355836683778381E01F910F91B1
:101360000895CF93DF93DC018FB7F894E0912202C8
:10137000F0912302EA17FB0721F42AC0EA17FB07C2
:1013800089F0EF010190F081E02D3097B9F72091BD
:101390002402309125022A173B0781F08FBFDF918D
:1013A000CF9108952D913C911197398328832091F5
:1013B0002402309125022A173B0781F72AE132E007
:1013C00030932502209324028FBFDF91CF9108959F
:1013D00014964D915D916D917C91179740930E02FB
:1013E00050930F0260931002709311022D913C9163
:1013F000119730930B0220930A022AE032E03093D7
:10140000230220932202C3CFF894682F70E086EB6A
:1014100092E00E94E84A84E00E94040ABF92CF92C0
:10142000DF92EF92FF920F931F93CF93DF9300D041
:1014300000D0CDB7DEB78C01DC011496CD90DD90E5
:10144000ED90FC901797BFB6F894E0912202F091CE
:101450002302FE83ED839F2D448155816681778130
:101460008F2DC416D506E606870B87FD2DC0ED81AE
:10147000FE81AD81BE810D90BC91A02DBE83AD8358
:1014800014964D915D916D917C911797892FC4169B
:10149000D506E606870B87FFEACF9D01D8012D937D
:1014A0003C9311830083BFBE0F900F900F900F905D
:1014B0000F900F90DF91CF911F910F91FF90EF90C0
:1014C000DF90CF90BF9008950E948E3169837A8318
:1014D0008B839C838F2D29813A814B815C81C2163D
:1014E000D306E406850B87FD29C04D815E8182E02D
:1014F0004A30580751F12D813E81F8013183208314
:10150000C0920E02D0920F02E0921002F0921102ED
:1015100010930B0200930A028AE092E09093230258
:10152000809322028091840090918500C2969093CE
:1015300089008093880082E086BBB5CF8091270226
:101540008111D3CF83E00E94040ADA010D90BC918F
:10155000A02DBE83AD83CFCF88E00E94040A809186
:101560002702882329F0823011F010922702089573
:1015700082E00E94040A8F929F92AF92BF92CF9214
:10158000DF92EF92FF920F931F93CF93DF93FC01B3
:10159000A78DB0A1109709F415C18D919C91119759
:1015A00090A3878F16964D915D916D917C911997BF
:1015B00091E0411551056105710509F4ACC0C4897C
:1015C000D58986892FB7F8943A814115510561056F
:1015D000710509F067C0809583238A832FBF20910E
:1015E0004A0230914B0211963C932E93B0934B02DA
:1015F000A0934A0283A1807131E041155105610534
:10160000710509F030E021E0811120E0321709F482
:1016100084C00789108D218D328D0115110521059A
:10162000310509F47AC0C480D580E680F7800C0DBE
:101630001D1D2E1D3F1D9460A78DB0A1109709F0B0
:10164000A1C0008B118B228B338B83A18071892BDE
:1016500083A391FFCCC0DB01CA018C0D9D1DAE1D83
:10166000BF1DCB2F80179107A207C30BC7FFA4C0D4
:10167000C38CD48CE58CF68C2BE639E03383228343
:1016800084839583A683B783408751876287738756
:10169000C41AD50AE60AF70AC486D586E686F7860E
:1016A00081E046C0832B8A832FBF20914A0230916C
:1016B0004B0211963C932E93B0934B02A0934A0297
:1016C000C38CD48CE58CF68C4C155D056E057F05BE
:1016D00008F090CF0789108D218D328DA78DB0A194
:1016E000011511052105310581F583A18071109740
:1016F00009F46EC012960D911D912D913C91159794
:10170000008B118B228B338B876083A3C480D580A1
:10171000E680F780A0CF90E052CFA78DB0A11097C0
:10172000F1F4108A118A128A138A892B83A380E02C
:10173000DF91CF911F910F91FF90EF90DF90CF90AD
:10174000BF90AF909F908F900895C480D580E68021
:10175000F7800C0D1D1D2E1D3F1D97E06FCF1296BB
:101760008D909D90AD90BC901597808A918AA28AA9
:10177000B38A9460982B93A384829582A682B782C1
:1017800081E0D6CF12968D909D90AD90BC9015972C
:10179000832F081519052A058B0987FD16C083A11B
:1017A0008071808A918AA28AB38A892B83A391FF50
:1017B000E3CF950184014FCF0483158326833783BC
:1017C00081E0B6CF85E10E94040A83E10E94040A09
:1017D000108A118A128A138A836083A38481958177
:1017E000A681B781840F951FA61FB71F45CF48015B
:1017F0005901C2CF2F923F924F925F926F927F9288
:101800008F929F92AF92BF92CF92DF92EF92FF9210
:101810000F931F93CF93DF9300D0CDB7DEB7098D21
:101820001A8D8091B5028823B1F00F900F900F9020
:10183000DF91CF911F910F91FF90EF90DF90CF90AC
:10184000BF90AF909F908F907F906F905F904F90E0
:101850003F902F90089581E08093B5026E012BE1B7
:10186000C20ED11C2091B2028091B1028983482F0F
:1018700050E0281740F01092B1021092B202198283
:1018800020E040E050E078019FEFE91AF90AF70103
:101890008491840F952F911D8136910524F1821B2F
:1018A00091098136910518F01092B502BECF1092C1
:1018B000B1026091B202F981F61BF983AF2EB12C0F
:1018C00070E06F5A7D4FA50181E592E00E942C4B9C
:1018D0001092B20229812093B1028091C1008062EE
:1018E0008093C100A501CA018F5A9D4F1C01F701C9
:1018F0008491F82E863008F445C18350990B71010C
:10190000E80EF91EF801329694913196A590B490A4
:10191000F801849181010D5F1F4FF10182838824BA
:101920008A94890E992309F442C1E016F10608F45D
:1019300048C1C5010196880E992E911CEA82FB824E
:1019400074C0F601823008F40EC1219131916F010B
:10195000833009F412C1C901A0E0B0E0AC01BD01BF
:10196000405E5F4F6F4F7F4F4038510561057105F5
:1019700008F44FC0AC01BD01505F6F4F7F4F411560
:10198000504461057105C0F1AC01BD01685F7F4F36
:10199000411551056042710510F1AC01BD017C5F3C
:1019A000411551056105704168F0F801AC01BD01B8
:1019B0003CE176956795579547953A95D1F74068FC
:1019C00041938F01AC01BD0125E17695679557954F
:1019D00047952A95D1F74068F80141938F01AC01F2
:1019E000BD01FEE07695679557954795FA95D1F735
:1019F0004068F80141938F01AC01BD01E7E07695A5
:101A0000679557954795EA95D1F74068F801419356
:101A10008F018F77F80181938F01A814B90409F41D
:101A200041C0E016F10608F4CCC0F5018491FFEF47
:101A3000AF1ABF0A853009F468C008F482CF9AEF64
:101A4000980F923008F0BDC0F60140815181270106
:101A5000401A510A052C000C66087708052E000C68
:101A6000660B770B441655066606770610F4B3012D
:101A7000A201F80141933F012601F4E04F0E511CF1
:101A8000F601228133818A01B901863009F471C0DF
:101A9000C3010E94234B060D171D6201A814B9044F
:101AA00009F0BFCF02191309602F33E0F32EF00EB7
:101AB000CF2CD12C860103501109020D131D5601A4
:101AC000F2E0AF1AB10821E0C21AD108F101F082A8
:101AD000809100028183C1010E945F41F8019083DF
:101AE000F101EA0DFB1D8083F101EC0DFD1D8EE778
:101AF000808389818F0D8093B1028091C1008062C3
:101B00008093C1001092B50290CEF601A191B191DF
:101B1000AF01C80101962C91222399F08E159F05E3
:101B200008F041C0119603C0E816F90679F0FC01EF
:101B3000208301962D912111F7CF9C01201B310BA1
:101B40002150F80120836A018C0167CFC701801BF7
:101B5000910B8150F8018083A814B90431F16A0116
:101B60000A811B8162CF81919191A191B1916F0105
:101B7000F5CEC3010E940D4B8ECFC901330FAA0BC6
:101B8000BB0BECCE6DEF680FC82ED12C8601035035
:101B90001109020D131D560182E0A81AB10891E047
:101BA000C91AD10893CF20E0CCCF87017BCF85E045
:101BB000C82ED12C94E0A92EB12C26E0F22E63E0A1
:101BC00085CF86E00E94040A80914F0290915002D6
:101BD0009F938F9321E030912702311101C020E0C3
:101BE0001F922F93209149022F93209148022F9307
:101BF000209147022F93209146022F9321E0892BB9
:101C000009F420E01F922F9389EB9DE09F938F931F
:101C10000E94FA0B8DB79EB70C960FB6F8949EBF34
:101C20000FBE8DBF08950E948E319F938F937F9337
:101C30006F938EEB9DE09F938F930E94FA0B0F9012
:101C40000F900F900F900F900F9008950F931F9388
:101C50000E948E31362F272F462F572FBC017F939E
:101C60008F932F933F9381E090E0A0E0B0E000914C
:101C700042021091430220914402309145024017E4
:101C800051076207730718F080E090E0DC01409193
:101C90003E0250913F026091400270914102840FD8
:101CA000951FA61FB71FBF93AF939F938F9383EC8E
:101CB0009DE09F938F930E94FA0B8DB79EB70A9673
:101CC0000FB6F8949EBF0FBE8DBF1F910F91089560
:101CD0004F925F926F927F928F929F92AF92BF923C
:101CE000CF92DF92EF92FF92CF93DF9300D000D09C
:101CF0000F920F92CDB7DEB769837A838B839C8373
:101D000069017A01C701B60129813A814B815C8161
:101D1000621B730B840B950B80903A0290903B02F0
:101D2000A0903C02B0903D023FEF831A930AA30AB1
:101D3000B30A80923A0290923B02A0923C02B09287
:101D40003D02409036025090370260903802709009
:101D50003902460E571E681E791E40923602509276
:101D6000370260923802709239026115710541E0C4
:101D70008407910508F061C020913202309133024E
:101D8000409134025091350229833A834B835C831E
:101D90009B01AC010E944B4A6D837E838F839887A1
:101DA000DC01CB0181509F4FAF4FBF4F892F9A2F3E
:101DB000AB2FBB2729813A814B815C81820F931F16
:101DC000A41FB51F29813A814B815C81821793073B
:101DD000A407B50718F48FEF9FEFDC018093320260
:101DE00090933302A0933402B093350240914202A3
:101DF0005091430260914402709145025C546B43E0
:101E00007B4F2F2DC416D506E606270B27FF42C0B1
:101E100028960FB6F894DEBF0FBECDBFDF91CF91ED
:101E2000FF90EF90DF90CF90BF90AF909F908F90FA
:101E30007F906F905F904F9008956115710530E12C
:101E40008307910540F62091320230913302409190
:101E500034025091350229833A834B835C839B0182
:101E6000AC0121503F4F4F4F5F4F232F342F452F51
:101E700055270E944B4A6D837E838F839887DC01B0
:101E8000CB0129813A814B815C81820F931FA41F72
:101E9000B51F98CFBF93AF939F938F937F926F920D
:101EA0005F924F92BF92AF929F928F9288EC9DE08B
:101EB0009F938F930E94FA0B0FB6F894DEBF0FBE6C
:101EC000CDBF8091420290914302A0914402B09113
:101ED0004502C816D906EA06FB0698F480913E0230
:101EE00090913F02A0914002B09141020196A11D44
:101EF000B11D80933E0290933F02A0934002B093A5
:101F00004102C0924202D0924302E0924402F09217
:101F10004502109232021092330210923402109253
:101F20003502109236021092370210923802109247
:101F3000390210923A0210923B0210923C02109227
:101F40003D0266CFCF93DF93CDB7DEB762970FB672
:101F5000F894DEBF0FBECDBF0E948E316B017C01B5
:101F60009E012F5F3F4F3F832E833E813C874F81F1
:101F70004D8780912602882309F49AC10E948E31F0
:101F8000688779878A879B87C61AD70AE80AF90A79
:101F9000F894809126028111F4C578940E948E31C4
:101FA000DC01CB018C0D9D1DAE1DBF1D8F87988B55
:101FB000A98BBA8B81E0809326028091CE02882380
:101FC00011F11092CE021FEF8091D8022091D6021B
:101FD0003091D70291E0910FE92FF0E0EE0FFF1F53
:101FE000EE0FFF1FE20FF31F0BC0BF016C5F7F4FAF
:101FF000408151814850554209F4A0C1FB019F5FC7
:10200000192F981790F38091CF02882311F1109225
:10201000CF021FEF8091D8022091D6023091D702D3
:1020200091E0910FE92FF0E0EE0FFF1FEE0FFF1F81
:10203000E20FF31F0BC0BF016C5F7F4F40815181E6
:10204000465F5C4109F4EEC1FB019F5F192F9817B1
:1020500090F38091D002882311F11092D0021FEFEB
:102060008091D8022091D6023091D70291E0910F51
:10207000E92FF0E0EE0FFF1FEE0FFF1FE20FF31F3F
:102080000BC0BF016C5F7F4F408151814C5C5D4153
:1020900009F486C1FB019F5F192F981790F3809177
:1020A000D102882311F11092D1021FEF8091D80242
:1020B0002091D6023091D70291E0910FE92FF0E004
:1020C000EE0FFF1FEE0FFF1FE20FF31F0BC0BF014C
:1020D0006C5F7F4F40815181435A544409F476C16B
:1020E000FB019F5F192F981790F38091D2028823EC
:1020F00011F11092D2021FEF8091D8022091D602E6
:102100003091D70291E0910FE92FF0E0EE0FFF1F21
:10211000EE0FFF1FE20FF31F0BC0BF016C5F7F4F7D
:10212000408151814C5F544409F494C1FB019F5F8D
:10213000192F981790F38091D302882359F11092A8
:10214000D302FF24FA948091D8022091D6023091D4
:10215000D70288248394912C47E0D42E5CE0252E6E
:10216000312C91E09F0DE92FF0E0EE0FFF1FEE0FF5
:10217000FF1FE20FF31F0BC0BF016C5F7F4F408159
:102180005181455F5F4209F49FC1FB019F5FF92EBA
:10219000981790F38091D402882339F11092D402D9
:1021A000EE24EA948091D8022091D6023091D70291
:1021B000B2E0FB2E0DE218E091E09E0DE92FF0E079
:1021C000EE0FFF1FEE0FFF1FE20FF31F0BC0BF014B
:1021D0006C5F7F4F408151814D52504309F46DC077
:1021E000FB019F5FE92E981790F38091D502882319
:1021F00021F01092D5020E94BB3E8091D902882323
:1022000089F11092D902EE24EA948091D8022091AB
:10221000D6023091D70240E3442E53E2552E64EAB1
:10222000762E74E8B72EE4E9AE2EFAE63F2E3E860F
:10223000FF24F394FE0CEF2DF0E0EE0FFF1FEE0FE6
:10224000FF1FE20FF31F0BC0BF016C5F7F4F408188
:1022500051814C59504309F48BC1FB01F394EF2C8D
:10226000F81690F3A8958091DA02882329F080E48B
:10227000809360001092DA0280919B036C857D85CB
:102280000E948B48182F18160CF43DC481113EC4CF
:102290000E948E316B017C01A70196016F857889C0
:1022A00089899A890E94680E80912602811166CEE2
:1022B000CF86D88AE98AFA8A7DCEC280D380C114BB
:1022C000D10409F492CFF601928992FF75CF90FF65
:1022D000DEC2C6010E94B109D6015296FC92529705
:1022E0001A8309832C853D8542E060E01C968D9120
:1022F0009C910E94EC29F8940E948E31688779871E
:102300008A879B87F60180859185A285B38528857C
:1023100039854A855B85820F931FA41FB51F84836F
:102320009583A683B783C6010E940E0A7894809194
:10233000D8022091D6023091D7023ECFE280F380BE
:10234000E114F10409F45FCED70156969C9192FFF7
:1023500041CE0E948E31F894F70137892689422FA9
:102360004B7F468B78949F938F937F936F931F92AD
:102370003F9321701F922F931F921F9320EA3DE0FD
:102380003F932F930E94FA0B0FB6F894DEBF0FBE57
:10239000CDBF8091D8022091D6023091D7021ACEBB
:1023A0000280F381E02D309709F479CE908D9F3F24
:1023B00009F05CCEF89486858111D9C27894809119
:1023C000D8022091D6023091D70250CE0280F381FC
:1023D000E02D309709F489CE968593FF6DCEF89461
:1023E0008685877F86877894CF014A969F938F93BF
:1023F00080898695869586951F928F931F921F934D
:10240000E7E8FDE0FF93EF930E94FA0B0FB6F89414
:10241000DEBF0FBECDBF8091D8022091D602309191
:10242000D7024ACE0280F381E02D309709F411CE15
:10243000458D968D4913F4CDF894858D968D891729
:1024400009F4EDC278948091D8022091D60230919F
:10245000D702E6CD0280F381E02D309709F46BCEF0
:10246000948D90FF4FCEF8949481258136814781D9
:10247000548965897689A789B08D018DF28CE38CAA
:10248000848D8E7F848F7894EF92FF920F93BF9309
:10249000AF937F936F935F934F933F932F939F934C
:1024A0001F921F93EDE7FDE0FF93EF930E94FA0B5D
:1024B0000FB6F894DEBF0FBECDBF8091D802209139
:1024C000D6023091D7021ECEA280B380A114B104EF
:1024D00009F460CEF501918D90FF43CEF8944480CD
:1024E000558066807780818D8E7F818F7894808DF6
:1024F000823009F4D0C208F0B2C1882309F4B2C214
:102500003A8229821C821B822C853D8544E061E051
:10251000848995890E94EC2929813A814B815C81CB
:10252000CA01B9010E94914A688779878A879B8787
:102530003FE039831A822C853D8542E061E0D50178
:1025400054968D919C910E94EC29088519852A85C5
:102550003B853327CF2CEA80B301A201C5010E943D
:10256000683C8091D8022091D6023091D702F9CDF3
:10257000C280D380C114D10409F474CEF6019689C7
:1025800092FF56CE90FF8EC1C6010E94B109E2E0D3
:10259000D6015696EC93569759821A821C96ED9165
:1025A000FC9110810E948E319B01AC012058374C68
:1025B0004E4F5F4F288739874A875B877092BC00F0
:1025C000688579858A859B850E94DB458091B90065
:1025D000482F50E060E070E0803131F04830510524
:1025E0006105710509F0D8C21093BB00B092BC0020
:1025F000688579858A859B850E94DB4589818093E2
:10260000BB00B092BC00688579858A859B850E9455
:10261000DB458A818093BB00B092BC0068857985D8
:102620008A859B850E94DB45A092BC003E8539834C
:1026300044E04A83D6011C96ED91FC9110810E94E2
:102640008E319B01AC012058374C4E4F5F4F28878D
:1026500039874A875B877092BC00688579858A854F
:102660009B850E94DB458091B900482F50E060E0D7
:1026700070E0803131F0483051056105710509F095
:102680008BC21093BB00B092BC00688579858A85A7
:102690009B850E94DB4589818093BB00B092BC0082
:1026A000688579858A859B850E94DB458A81809330
:1026B000BB00B092BC00688579858A859B850E94A5
:1026C000DB45A092BC003E85398340E44A83D601B5
:1026D0001C96ED91FC9110810E948E319B01AC0102
:1026E0002058374C4E4F5F4F288739874A875B8782
:1026F0007092BC00688579858A859B850E94DB4540
:102700008091B900482F50E060E070E0803131F0F6
:10271000483051056105710509F03EC21093BB00B8
:10272000B092BC00688579858A859B850E94DB45CF
:1027300089818093BB00B092BC00688579858A85C9
:102740009B850E94DB458A818093BB00B092BC00D0
:10275000688579858A859B850E94DB45A092BC00AF
:102760003AE33D83D6011C96ED91FC910C851D85C5
:1027700021E0AE014B5F5F4F61E080810E947C46AB
:10278000598288E08A83D6011C96ED91FC911081D4
:102790000E948E319B01AC012058374C4E4F5F4F49
:1027A000288739874A875B877092BC00688579855E
:1027B0008A859B850E94DB458091B900482F50E0B7
:1027C00060E070E0803131F04830510561057105FD
:1027D00009F0E2C11093BB00B092BC006885798516
:1027E0008A859B850E94DB4589818093BB00B092DE
:1027F000BC00688579858A859B850E94DB458A8136
:102800008093BB00B092BC00688579858A859B85E2
:102810000E94DB45A092BC00F8940E948E3168872C
:1028200079878A879B87F60180859185A285B38504
:10283000288539854A855B85820F931FA41FB51FA4
:1028400084839583A683B783C6010E940E0A789479
:102850008091D8022091D6023091D702E9CC833002
:1028600009F07FCE1A8219822C853D8542E061E015
:10287000848995890E94EC2989819A81182F092FD2
:10288000F92FF670EF2E20E030E0CF2C65CE6E2DC4
:10289000C6010E94C43C8091D8022091D60230919A
:1028A000D7028ACCD6010789942C901A292C312C76
:1028B0000484F585E02D54968D919C9182159305A5
:1028C00008F476C06C848D8484E7898310E0085E08
:1028D0001F4F0C0D1D1DD6011C96ED91FC91292D4D
:1028E000462D582D61E080810E947C46F601878943
:1028F000980E978A8489958982199309958B848B80
:10290000C60148969F938F931F929F9287858F93BE
:1029100086858F931F92FF9285E59DE09F938F930D
:102920000E94FA0BD60157961C9257971E968D91CE
:102930009C911F9701961F969C938E931E970FB69E
:10294000F894DEBF0FBECDBF54968D919C91281692
:10295000390608F057C01092260281E08093D90210
:102960008091D8022091D6023091D70261CC918D0E
:10297000908F78949F01215F3F4F3F932F931F9239
:102980008F9387891F928F931F921F93ECE8FDE02E
:10299000FF93EF930E94FA0B0FB6F894DEBF0FBEC1
:1029A000CDBF8091D8022091D6023091D7025ECB64
:1029B00082E78D836E808F800C851D8522E0AE01BD
:1029C0004B5F5F4F61E080810E947C4689818F71FF
:1029D0002A81382FF601828993898217930710F490
:1029E000338B228BC90166E070E00E945B4A281B92
:1029F000390BD60155963C932E93549722153305E7
:102A000008F0CDC0D60156968C9181FF21CFC6012A
:102A10000E94B109F60186898B7F868BFDCE548991
:102A2000658990892189328943898F5F858F789460
:102A30006F935F934F933F932F939F931F921F9397
:102A4000EBE9FDE0FF93EF930E94FA0B0FB6F894C9
:102A5000DEBF0FBECDBF8091D8022091D60230914B
:102A6000D702DECA1A8219821C821B822C853D8500
:102A700044E061E0848995890E94EC2969817A812A
:102A80008B814C81942F0E94914A8B019C0147704D
:102A9000E42ECF2C61CD9A8289821C821B822C85E8
:102AA0003D8543E061E0848995890E94EC29298174
:102AB0003A814B815C81CA01B9010E94914ABB27CE
:102AC000A92F982F872F9C01AD01442755272887D0
:102AD00039874A875B87D9821A822C853D8542E0F7
:102AE00061E0D50154968D919C910E94EC298A81D8
:102AF0008C7F98859170E82EE92ACF2C088519855E
:102B00002A853B8529CD89810E941349F98080E07F
:102B100000919B03E02EEF180F110DC02FB7F89412
:102B200090919B030917F1F02FBF00919B03E02EBA
:102B3000EF180F1599F390E04E2D50E0481B590BFC
:102B4000BC016F0D711D65527D4F85529D4F0E94D6
:102B50002C4B109226028E2D2FB7F89490919B0348
:102B60000913E2CFE0929B032FBF11160CF090CB1C
:102B700081EE9DE09F938F930E94FA0B0F900F9030
:102B800087CB8FEF8093260278940000F894809191
:102B900026028111F9CF01CA8FE20E94040A5796DA
:102BA0000C9192CECF93DF93CDB7DEB78FE993E050
:102BB0009093B4028093B302FFB6F8941092800011
:102BC00001E000938100E4E8F0E01182108280814E
:102BD0009181C296909389008093880012E016BB81
:102BE00080819181C29690938B0080938A0084E0CB
:102BF00086BB82E092E00E940E0A06BB10936F0033
:102C0000FFBE88E19DE00FB6F894A8958093600020
:102C10000FBE9093600080E4809360001093C0002A
:102C200087E090E09093C5008093C40086E0809395
:102C3000C20088EB8093C1008CED9DE09F938F9341
:102C40000E94FA0B0F900F90F89486EB92E00E948E
:102C5000C64A8C01892B09F4B8C0F8940E948E31C1
:102C6000A62E972E882E792EE2E2F2E08581882327
:102C700009F4AEC082E292E022E0DC0115962C93CA
:102C800015970AE012E00D931C93EAE1F2E044810B
:102C9000558166817781D80114964D935D936D932C
:102CA0007C931797DC011396FC93EE931297D8014F
:102CB000ED93FC9382E192E0918380838091840084
:102CC00090918500C296909389008093880026BBDE
:102CD0001092B5020E940A099FEF70E060E011E1D6
:102CE0000091D802C090D602D090D702E1E0E90F5F
:102CF000F0E0EE0FFF1FEE0FFF1FEC0DFD1D892F03
:102D00000AC0AF014C5F5F4F208131812E593A419B
:102D100009F460C0FA018F5F801798F3E72FF62F50
:102D2000309709F45EC043A14071A489B5898689B2
:102D30005FB7F894442309F479C012964C91129726
:102D4000842B12968C935FBF83A180718111812F98
:102D500083A310A2178EC4CF5FEF4091D80281E009
:102D6000850F90E0880F991F880F991FE091D60278
:102D7000F091D702E80FF91F0AC09F012C5F3F4F67
:102D800080819181835B934409F42DC2F9015F5FD7
:102D9000541798F382E092E00E940E0AE2E2F2E019
:102DA00081E08583789486811F928F937F928F92A2
:102DB0009F92AF9282ED9DE09F938F930E94FA0BBA
:102DC0000FB6F894DEBF0FBECDBF78940E94A20F5D
:102DD000068350CF0280F381E02D982F309709F0C1
:102DE000A2CF1FEFE12CF12CE1E0E10FF0E0EE0FBC
:102DF000FF1FEE0FFF1FEC0DFD1D912F09C0AF014E
:102E00004C5F5F4F2081318124563242A9F0FA0194
:102E10009F5F9017A0F3F7013097A1F015A214A2BD
:102E200060E0CF0188960E94EA1DDECF12964C9199
:102E300012978095842385CF0280F381E02D192F8E
:102E4000309761F71FEF612CB12CE1E0E10FF0E06A
:102E5000EE0FFF1FEE0FFF1FEC0DFD1D812F09C0B0
:102E6000AF014C5F5F4F208131812850354249F1DD
:102E7000FA018F5F8017A0F3E62CFB2CE114F1041C
:102E800031F1C7010E94B109C70108960E94B1093A
:102E9000D7015496ED91FC91309761F0DF010190DC
:102EA000F081E02D13961C921E9212971D921C9297
:102EB0003097A1F7F701158A148A108E178A168A9F
:102EC000C4CFE280F380182FE114F104D1F61FEF94
:102ED000BB24BA9440910102E1E0E10FF0E0EE0F73
:102EE000FF1FEE0FFF1FEC0DFD1D0AC09F012C5FA1
:102EF0003F4F80819181865F9C4109F43EC0F9017A
:102F00001F5F101798F3409301029FEF7E2D6F2DE6
:102F1000F090D8020091D6021091D702E1E0E90FBB
:102F2000F0E0EE0FFF1FEE0FFF1FE00FF11F892FE4
:102F30000AC0AF014C5F5F4F208131812155314282
:102F400009F445C0FA018F5F8F1598F3E72FF62F2C
:102F5000309709F443C0858180FFE0CFA281B3811F
:102F600024813FB7F89483FD94C112968C911297F7
:102F7000822B12968C933FBFCBCF0280F381E02D42
:102F8000309709F4C0CF828D841301C04B2D868DFC
:102F9000882309F4A1CF409301028F5F858F808938
:102FA0009189A289B3894085518562857385840F93
:102FB000951FA61FB71F808B918BA28BB38B848329
:102FC0009583A683B783CF010E940E0A83CF028028
:102FD000F381E02D982F309709F0BDCFEE24EA94CD
:102FE000C12CD12CE1E0EE0DF0E0EE0FFF1FEE0F53
:102FF000FF1FE00FF11F8E2D09C0AF014C5F5F4F27
:10300000208131812C5A354289F0FA018F5F8F156A
:10301000A0F3F601309781F09F012D5F3F4F428171
:1030200060E0808191810E94EC29DCCF0280F381F5
:10303000E02DE82E309781F70FEF10E0F12C6DE4D2
:103040007DE19091D80221E0200F30E0220F331F64
:10305000220F331FE091D602F091D702E20FF31F47
:10306000802F09C0AF014C5F5F4F20813181225C0E
:103070003742B9F0FA018F5F8917A0F3E12FFF2DD6
:103080003097A9F087859089208531854285442332
:1030900009F44CC0D9018C9373836283128A118A1C
:1030A000D0CF0280F381E02D082F309759F76FEFD2
:1030B00010E070E09091D80221E0260F30E0220F5E
:1030C000331F220F331FE091D602F091D702E20F97
:1030D000F31F862F09C0AF014C5F5F4F2081318104
:1030E000235A344461F1FA018F5F8917A0F3E12F6D
:1030F000F72F309751F1A085B185228536854FB7DE
:1031000035FF63C0F89412963C911297322B1296B9
:103110003C93129711963C911197232B11962C9367
:103120004FBF8685807381608687C4CF4FB7F89480
:103130009927D90111969C938E934FBFADCF0280F2
:10314000F381E02D682F3097B1F66FEF10E070E05B
:103150009091D80221E0260F30E0220F331F220F7A
:10316000331FE091D602F091D702E20FF31F862FB2
:1031700009C0AF014C5F5F4F208131812C52334435
:1031800069F1FA018F5F8917A0F3E12FF72F3097CC
:1031900009F4E2CDA485B58586859FB7F89412968B
:1031A0004C9112978095842312968C939FBFA7858C
:1031B000B08981899FB7F89412964C9112978095A7
:1031C000842312968C939FBFC3CFF89412963C91A0
:1031D0001297232B12962C934FBFA3CF0280F3811B
:1031E000E02D682FD4CF0280F381E02D309709F4D1
:1031F000D1CDA185B28583859FB7F89412962C9185
:1032000012978095822312968C939FBFA485B585D3
:1032100086859FB7F89412962C91129780958223F9
:1032200012968C939FBFA785B08981899FB7F89428
:1032300012962C9112978095822312968C939FBFA1
:10324000A289B38984899FB7F89412962C9112971A
:103250008095822312968C939FBFA589B689878912
:103260009FB7F89412962C9112978095822312960C
:103270008C939FBFA08DB18D828D9FB7F8941296CD
:103280002C9112978095822312968C939FBF108663
:1032900064CD12964C911297822F8095842369CE2B
:1032A000CF92DF92EF92FF92FC0180819181A28107
:1032B000B3812481E1E5FDE04591559165917491DB
:1032C00084179507A607B70770F46C017D01C20E3D
:1032D000D11CE11CF11C4C155D056E057F0518F530
:1032E000481B50E002C040E050E09C012E533D4F8F
:1032F0003F932F935F934F93BF93AF939F938F937E
:103300008DEC9DE09F938F930E94FA0B8DB79EB733
:103310000A960FB6F8949EBF0FBE8DBFFF90EF9038
:10332000DF90CF900895422F50E0DFCFFC018081E5
:103330000480F581E02D2FB7F8948130C1F0823000
:10334000D9F0808190E0A0E0B0E02FBFBF93AF93B1
:103350009F938F938FEA9DE09F938F930E94FA0B28
:103360000F900F900F900F900F900F900895808105
:103370009181A0E0B0E0E9CF80819181A281B38109
:10338000E4CFFC0185818F9384818F9380811F928C
:103390008F9384EB9DE09F938F930E94FA0B0F9085
:1033A0000F900F900F900F900F900895CF93DF9391
:1033B000AC01C091B302D091B4029E01280F391F15
:1033C0008DB79EB781509F4F88279A958217930794
:1033D00068F03093B4022093B30260E070E0CE0155
:1033E0000E943E4BCE01DF91CF91089581E10E9472
:1033F000040ACF93FC018091D6029091D702892BC9
:1034000089F4C0818C2F90E0880F991F880F991F35
:103410000E94D6199093D7028093D602C093D80207
:10342000CF9108958AE00E94040ACF93DF93282F5A
:10343000CA013091D8022317F0F430E0220F331F75
:10344000220F331FC091D602D091D702C20FD31FD3
:1034500028813981232B79F420914F023091500239
:10346000232B49F4688379830E94D6198A839B832E
:10347000DF91CF9108958BE00E94040A8FE00E94B3
:10348000040A8EE00E94040A0F931F93CF93DF93E8
:103490008C01C0914F02D0915002209709F04BC08F
:1034A00060914C0270E06230E8F1E091B302F0917B
:1034B000B4024DB75EB741505F4F44275A95CF01D4
:1034C000860F971F4817590740F432C09C01260FFA
:1034D000371F4217530730F0C9012196C11524E068
:1034E000D207A1F78E1B9F0B0E94D619D0935002D2
:1034F000C0934F0290934E0280934D020E940A099E
:10350000F80180819181A281B381809346029093DA
:103510004702A0934802B0934902DF91CF911F91D7
:103520000F91089582E080934C0262E070E0BDCF7D
:1035300080E10E94040A8DE00E94040AFF920F932A
:103540001F93CF93DF93EC0161E088859985AA856D
:10355000BB85892B8A2B8B2B09F460E08C810E9420
:10356000B642F62E072F182F44E250E06EE97AE1BA
:1035700088810E94151AFC01F48A058B168B81E064
:103580004C855D856E857F85452B462B472B09F441
:1035900080E08295807F91E0488559856A857B85AA
:1035A000452B462B472B09F490E0892B83A3888970
:1035B0009989AA89BB89878B908FA18FB28F12A21C
:1035C00011A210A2178E80914F0290915002892B68
:1035D00069F480914C028A3018F48AE080934C029E
:1035E000DF91CF911F910F91FF9008950E94411A92
:1035F0008CE00E94040AFC0180819091D802891716
:1036000040F590E0880F991F880F991FA091D6026E
:10361000B091D702A80FB91F8D919C9111978E5927
:103620009A41B9F412960D90BC91A02DF8945F9632
:103630008D919C919097892B71F44481558166817D
:1036400077815B964D935D936D937C935E977894B1
:1036500008950E94F81A84E10E94040ACF92DF9232
:10366000EF92FF92CF93DF93DC018C919091D8027F
:10367000891708F08CC090E0880F991F880F991F58
:10368000E091D602F091D702E80FF91F8081918175
:103690008E599A4109F07BC0C281D3818FB7F894CB
:1036A000E0914A02F0914B02309709F472C02081F8
:1036B000318130934B0220934A028FBF1496CD90F4
:1036C000DD90ED90FC901797C282D382E482F58260
:1036D00018968D919D910D90BC91A02D8683978316
:1036E000A087B187F894118210828F8D98A1892BC1
:1036F00071F0A9A1BAA1ED93FC93FAA3E9A3789480
:10370000DF91CF91FF90EF90DF90CF900895FAA3D3
:10371000E9A3F8A3EF8F8BA182FD2BC0C88AD98AB9
:10372000EA8AFB8A982F94609BA381FD16C0CE0184
:103730000E94B109CC82DD82EE82FF828BEB9AE09F
:103740009B838A83CE010E940E0A7894DF91CF91E9
:10375000FF90EF90DF90CF9008954C815D816E8156
:103760007F81872F4C155D056E058F0987FDEDCF95
:10377000DECF488959896A897B89972F4C155D0569
:103780006E059F0997FFCACF83E10E94040A0E9439
:10379000F81A0E943E1A1F93CF93DF93EC01162F65
:1037A0008E8980FF24C06F8B8A7F84608E8BAC896A
:1037B000BD891097B9F01296ED91FC9113978D91F8
:1037C0009C9111979D8B8C8B11961C921E92139637
:1037D0001C921E921297612FCD011995AC89BD895B
:1037E000109749F71092260281E08093CE02DF9174
:1037F000CF911F910895CF93FC01A085B1859C9135
:10380000818D228592239923F1F080958170811119
:103810001DC0838DCFEFC80F813039F1C38F8481F4
:103820009581A681B7814785508961897289840F06
:10383000951FA61FB71F84839583A683B783C1E016
:103840008C2FCF9108958170882319F38DE39CE12B
:103850009383828383899489A589B6898483958398
:10386000A683B783828D838FEACF648D8789908DFD
:103870000E94CB1B8C2FCF9108950F931F93FC01B7
:10388000A085B1859C9144815581668177810385AE
:10389000148525853685400F511F621F731F818D4A
:1038A00022859223992361F080958170882359F0B5
:1038B000448355836683778381E01F910F91089538
:1038C00081708111F5CF438B548B658B768B8BEF99
:1038D0009BE193838283CF011F910F910C94FB1B7B
:1038E0000897FC01608D0E94CB1B80E00895FC01CD
:1038F00086898460868B1092260281E08093CE02B6
:1039000084819581A681B7814089518962897389B3
:10391000840F951FA61FB71F84839583A683B78343
:1039200081E00895CF93DF93EC012A8D2223B9F033
:10393000FC0130E0A901440F551F420F531F4C0FEB
:103940005D1F20E091E0A38DB48D8C91358D832394
:103950008111292B990F33964E175F07A1F79C858C
:10396000921741F08D8582278095392F3227382391
:1039700031111DC0888D2D8787FD05C09FEF980FE1
:10398000882371F1988F8C819D81AE81BF8148859C
:1039900059856A857B85840F951FA61FB71F8C8369
:1039A0009D83AE83BF8381E0DF91CF910895382F4F
:1039B000309593238223892B8C87EE85E830D0F6CF
:1039C00091E09E0F9E87EC0FFD2FF11D87871092CF
:1039D000260281E08093D0028FEF888F2D87D3CF8E
:1039E0001092260281E08093D002CCCFCF93DC01ED
:1039F00014964C911497EEEFFDE0E4914E1709F404
:103A000043C081E090E00AC0FC01E250F24FE49133
:103A10009C012F5F3F4F4E1739F0C901803191054E
:103A200099F78DE20E94040AC82F27E920937A00B3
:103A30008830F0F090917D00877021E030E001C087
:103A4000220F8A95EAF7892F822B80937D004FE120
:103A500050E066EF7CE18C910E94151AFC018CED20
:103A600091E293838283C28F81E0858FCF91089505
:103A700091E001C0990F8A95EAF7892F90917E0015
:103A8000892B80937E00E3CF87E980937A0081E0E1
:103A9000C0E0F4CF8EE10E94040A0F931F93CF93EE
:103AA000DF93FC01A189B2898D919C911197928B32
:103AB000818B16968D919C911797C085D185228513
:103AC000222319F1888320914A0230914B021196EA
:103AD0003C932E93B0934B02A0934A02A189B289E2
:103AE00027853089109779F58217930741F08385F0
:103AF0009485A585B6850097A105B10571F480E090
:103B0000DF91CF911F910F9108952FB7F894AC01D9
:103B10005527598348832FBFD6CF4481558166816D
:103B20007781840F951FA61FB71F84839583A68373
:103B3000B7838AE49DE19383828381E0DF91CF9113
:103B40001F910F91089512964D915D916D917C9109
:103B500015978217930741F083859485A585B685CF
:103B60000097A105B10531F44483558366837783BB
:103B700081E0E4CF0481158126813781800F911F78
:103B8000A21FB31F2B2F84179507A607270B27FF0C
:103B9000EBCF8DE10E94040ACF93FC01C481C930B0
:103BA000B0F48C2F90E0AC01440F551F480F591F03
:103BB000455E5F4F6CEC7DE180810E94151AFC012F
:103BC000C28F82E99CE193838283CF91089581E241
:103BD0000E94040ACF92DF92EF92FF920F931F93FD
:103BE000CF93DF938C01EC01A897CE010E94B1091D
:103BF0001C821D821E821F821A8A1B8A1C8A1D8AB1
:103C000048A159A16AA17BA18CA5CE84DF84E88854
:103C1000F98884FD04C0F694E794D794C7944C19AE
:103C20005D096E097F0977FD07C070956095509515
:103C300041955F4F6F4F7F4F48A359A36AA37BA362
:103C40001E861F86188A198A847188608CA7ED8D5C
:103C5000FE8D8F8D9FB7F894228180958223828379
:103C60009FBF9CA59470EA8DFB8D8C8D2FB7F89427
:103C7000992349F19281892B82832FBFE8012497F0
:103C8000E881F9813097B1F030914A0220914B02DE
:103C900001C0FC01808191819983888330832183D5
:103CA000F0934B02E0934A02888199813E2F2F2F97
:103CB000009779F7DF91CF911F910F91FF90EF90CF
:103CC000DF90CF900895928180958923D5CF0F936F
:103CD0001F93CF93DF9300D000D0CDB7DEB78C0118
:103CE000DC018C919091D802891708F092C090E085
:103CF000880F991F880F991FE091D602F091D70283
:103D0000E80FF91F808191818E599A4109F081C095
:103D1000228133813E832D83C9010E94B109AD8187
:103D2000BE815F968D919C91892B09F074C0F8013A
:103D30009481AD81BE8193961C9101E09923B9F1E4
:103D4000AD81BE815496ED91FC91559756968C911C
:103D50002FB7F8943281911128C0809583238283F4
:103D60002FBF107121E0911120E081E0111180E05E
:103D7000281751F0ED81FE818789908DA18DB28D3C
:103D8000892B8A2B8B2BA9F4802F812BAD81BE81AF
:103D900093968C930F900F900F900F900F900F9021
:103DA000DF91CF911F910F910895832BD8CF00E021
:103DB000C7CF0E948E3169837A838B839C83ED8188
:103DC000FE818789908DA18DB28D29813A814B81A9
:103DD0005C81820F931FA41FB51F808B918BA28BD8
:103DE000B38B84839583A683B7838BEB9AE093830D
:103DF0008283102B146013A3CF010F900F900F90AC
:103E00000F900F900F90DF91CF911F910F910C9415
:103E10000E0A0E94F81A82E10E94040AFC018081C5
:103E20009091D802891758F590E0880F991F880F54
:103E3000991FA091D602B091D702A80FB91F8D91FA
:103E40009C91119784569242D1F412960D90BC9198
:103E5000A02D81E04481558166817781452B462BD9
:103E6000472B59F0880FF8949C969C919C979D7FC6
:103E7000892B9C968C937894089580E0F3CF0E94D0
:103E8000F81ADC018C919091D802891778F590E0AE
:103E9000880F991F880F991FE091D602F091D702E1
:103EA000E80FF91F8081918184569242F9F40280D3
:103EB000F381E02D14968D919D910D90BC91A02DD4
:103EC000F8944685578560897189452B462B472B89
:103ED00079F484839583A683B783828B938BA48B99
:103EE000B58B84A5877F84A7789408950E94F81ADB
:103EF00086E10E94040ACF93DF93DC01EC9190915C
:103F0000D802E91708F03DC02091D6023091D702BF
:103F1000F0E0EE0FFF1FEE0FFF1FE20FF31F4081D7
:103F200051814456524269F5C281D38114968C91D5
:103F3000891738F590E0880F991F880F991FF901AC
:103F4000E80FF91F8081918188509542D1F4028059
:103F5000F381E02D9E01285D3F4F8FB7F8944AA56D
:103F60005BA5452B81F44AEE5DE15BA74AA7448936
:103F7000558959A748A7358B248B8FBFDF91CF91E7
:103F800008950E94F81A89E10E94040A0F931F9372
:103F9000CF93DF938C01FC0180819091D802891727
:103FA00008F070C090E0880F991F880F991FE0916A
:103FB000D602F091D702E80FF91F808191818254D7
:103FC000944209F05FC0C281D381CE010E94B10941
:103FD000F80184819581A681B7818C839D83AE830E
:103FE000BF8380859185A285B3858F87988BA98BA8
:103FF000BA8B84858A8F8823E9F140895189628947
:1040000073894B875C876D877E872DE33CE13B831B
:104010002A838B8F84899589A689B789892B8A2BD6
:104020008B2B31F582E0898FF801808D9091D80239
:10403000891740F590E0880F991F880F991FE0912C
:10404000D602F091D702E80FF91F80819181885044
:104050009542C1F482819381988F8F8BF801848D72
:104060008C8FCE01DF91CF911F910F910C940E0A8E
:1040700083E0D9CF188E1F8A198EDF91CF911F91BF
:104080000F9108950E94F81A0F931F93CF93DF9317
:104090008C01FC0180819091D802891708F053C0EF
:1040A00090E0880F991F880F991FE091D602F09138
:1040B000D702E80FF91F808191818850954209F05D
:1040C00042C0C281D381F894CE010E94B109CE01D1
:1040D00008960E94B109EC89FD89309761F0DF01F3
:1040E0000190F081E02D13961C921E9212971D9262
:1040F0001C923097A1F71D8A1C8A188E1F8A81E0B6
:104100008E8BF80184819581A681B7818C839D83F4
:10411000AE83BF8380859185A285B385888B998B7B
:10412000AA8BBB8B892B8A2B8B2B49F4F8018485B6
:10413000888F7894DF91CF911F910F910895CE01D0
:104140000E940E0AF3CF0E94F81AEF92FF920F938B
:104150001F93CF93DF93EC0188819091D802891748
:1041600098F590E0880F991F880F991FE091D6026B
:10417000F091D702E80FF91F808191818850954214
:1041800019F502811381F894F801868980FD08C031
:104190007894DF91CF911F910F91FF90EF90089548
:1041A0007801F8E0EF0EF11CC7010E94B1098C8183
:1041B0009D81AE81BF81F80184879587A687B787E7
:1041C000C7010E940E0AE4CF0E94F81A0F931F93B2
:1041D000CF93DF938C01FC0180819091D8028917E5
:1041E00008F058C090E0880F991F880F991FE09140
:1041F000D602F091D702E80FF91F80819181865F86
:104200009C4109F047C0C281D381CE010E94B1090F
:10421000909101028A8D981303C08FEF8093010261
:10422000F80184819581A681B781888B998BAA8BAF
:10423000BB8B8C839D83AE83BF8380859185A28554
:10424000B3858C879D87AE87BF8784858E8F91E0ED
:10425000980F9D8F40895189628973894887598752
:104260006A877B87248935893F8B2E8B208D318D02
:10427000398F288F948D9C8F811105C0DF91CF914C
:104280001F910F910895CE01DF91CF911F910F9152
:104290000C940E0A0E94F81AFC01648180810C942F
:1042A000B642FF920F931F93CF93DF938C0146E0AA
:1042B00050E061E571E2FC0180810E94151AEC0179
:1042C000F801F08461E0F11060E0F80184810E945F
:1042D000B6426A837B838C838D8199E0F11001C0A3
:1042E00091E0892B8D83DF91CF911F910F91FF90EA
:1042F0000895CF92DF92EF92FF920F931F93CF9387
:10430000FC01C48580819091D802891708F04FC0C4
:1043100090E0880F991F880F991FA091D602B09145
:10432000D702A80FB91F8D919C911197895795427B
:10433000F1F512960D911C9184819581A681B7812A
:10434000892B8A2B8B2BA9F58091BC0082FF0EC094
:10435000CC0FF801C083838182608383CF911F914A
:104360000F91FF90EF90DF90CF900895C084D1849B
:10437000E284F38461E089E10E94B64261E088E171
:104380000E94B6421092B90080E8C8168AE1D806A9
:1043900086E0E806F10438F488E48093B80084E00D
:1043A0008093BC00D5CF8CE08093B800F8CF0E94FA
:1043B000F81A81E30E94040AFC01828D90917A0030
:1043C00096FD06C0909101029817F1F09F3F71F0A1
:1043D00084819581A681B7818853984FAF4FBF4F95
:1043E00084839583A683B78381E008958093010237
:1043F000982F987090937B008770806480937C00E6
:1044000087ED80937A00E4CF8FEF809301022091B3
:10441000780030917900858D968D891760F181E063
:10442000358B248B858F891780F18689978928178A
:104430003907E8F1808D918D82179307C0F1138EB3
:104440001092260281E08093CF0280899189A2890F
:10445000B3894085518562857385840F951FA61F9A
:10446000B71F808B918BA28BB38B84839583A6839C
:10447000B78381E0089544895589240F351F8F5FE4
:10448000358B248B858F891780F684819581A68151
:10449000B7814485558566857785840F951FA61F4E
:1044A000B71F84839583A683B78381E00895838DA6
:1044B0008F5F838F948D891718F280912702811165
:1044C000BECF8AE10E94040A0F931F93CF93DF931C
:1044D0008C014DE250E064E672E2FC0180810E94B2
:1044E000151AEC0161E0F801848518160CF060E003
:1044F000660F660F6CA7F80184810E94B6426A8F2E
:104500007B8F8C8F60E0F80180850E94B6426D8FB2
:104510007E8F8F8F80E090E0A0E0B0EC88A399A31D
:10452000AAA3BBA3F80180899189A289B3898E8B44
:104530009F8BA88FB98F1FA21EA21DA21CA2209123
:104540004F0230915002232BE1F420914C022B308A
:1045500018F42BE020934C028997A105B10548F08F
:104560008CEA98E29B838A83DF91CF911F910F9110
:1045700008958CA580618CA7DF91CF911F910F9139
:1045800008950E94411A0F931F93CF93DF93FC016C
:1045900080819091D802891708F082C090E0880F3E
:1045A000991F880F991FA091D602B091D702A80F2A
:1045B000B91F8D919C911197825C974209F070C050
:1045C00012960D911C918FB7F894C0914A02D09128
:1045D0004B02209709F466C02881398130934B0241
:1045E00020934A028FBF84819581A681B7818A83F7
:1045F0009B83AC83BD83808591859F838E83F89454
:1046000019821882D80151968D919C915297892BCD
:1046100081F05396ED91FC915497D183C0835496C9
:10462000DC93CE9353977894DF91CF911F910F91A4
:104630000895F801D48BC38BD28BC18B7894C801B9
:104640000E94B109D80112968D919C918A549D4186
:10465000A1F08A819B81AC81BD812DE43DE1F8010F
:104660003383228384839583A683B783C801DF9134
:10467000CF911F910F910C940E0A8A819B81AC817E
:10468000BD81F8014481558166817781272F4817C4
:1046900059076A072B0B27FFE0CF8DE10E94040A20
:1046A0000E94F81A0E943E1AFC0120818091D802D3
:1046B000281708F050C0822F90E0880F991F880FAC
:1046C000991FE091D602F091D702E80FF91F80817F
:1046D00091818456924209F03EC00280F381E02D20
:1046E000F89480A191A1A2A1B3A134A546855785D4
:1046F0006089718934FF1DC0841B950BA60BB70B15
:10470000B7FD21C07894B054BF93AF939F938F931C
:104710001F922F938AEA9DE09F938F930E94FA0B3A
:104720008DB79EB708960FB6F8949EBF0FBE8DBF8B
:1047300008957695679557954795841B950BA60B1D
:10474000B70BB7FFDFCFB095A095909581959F4FA0
:10475000AF4FBF4FD7CF0E94F81AFC0180819091D4
:10476000D802891708F040C0282F30E0220F331FED
:10477000220F331FE091D602F091D702E20FF31F10
:10478000208131812254344279F50280F381E02D79
:10479000F894918D43895489658976897894A085A8
:1047A000B1852C913285232331E02223D9F01F9249
:1047B0003F937F936F935F934F93969591701F9262
:1047C0009F931F928F9385EA9DE09F938F930E9402
:1047D000FA0BEDB7FEB73C960FB6F894FEBF0FBECE
:1047E000EDBF089530E0E3CF0E94F81A1F93CF93F6
:1047F000DF93FC0110818091D802181708F040C0A7
:10480000812F90E0880F991F880F991FA091D602E1
:10481000B091D702A80FB91F8D919C911197885024
:10482000954271F51296CD91DC91F8946481CE0198
:104830000E94CB1BCE010E94B109CE0108960E94B6
:10484000B1091E8A8F8978941F921F921F921F921E
:104850001F928F931F921F921F921F9380EA9DE0D9
:104860009F938F930E94FA0B8DB79EB70C960FB64D
:10487000F8949EBF0FBE8DBFDF91CF911F91089519
:104880000E94F81A0F931F93CF93DF93EC014DE131
:1048900050E062E474E288810E94151A8C016885F8
:1048A0008C810E943244F801608771878287DF9192
:1048B000CF911F910F910895CF92DF92EF92FF92C7
:1048C0000F931F93CF93DF93FC0180819091D802C7
:1048D000891708F098C090E0880F991F880F991FDA
:1048E000A091D602B091D702A80FB91F8D919C91CB
:1048F00011978155914209F086C012960D911C9135
:10490000C085C43008F07CC0D8011596DC91D67003
:10491000D11176C0C484D584E684F78484819581DE
:10492000A681B781892B8A2B8B2B09F06EC0E8EE0C
:10493000FDE0A591B49111968C9180FF50C060E08C
:1049400089E00E94B64260E08AE00E94B64260E0E0
:104950008BE00E94324480E58CBD1DBC81E0C11417
:10496000B2E1DB06BAE7EB06F10430F580E0C114F2
:10497000E9E0DE06EDE3EE06F104F0F481E0D1E0DB
:10498000F0E8CF16F4E8DF06FEE1EF06F104A0F44C
:1049900080E0D1E020E4C21622E4D2062FE0E20655
:1049A000F10450F480E2C81681EAD80687E0E806F0
:1049B000F104D0F081E0D2E0CC0FCC0FCD2BC0655C
:1049C000F801C0838183858184608583DF91CF91E5
:1049D0001F910F91FF90EF90DF90CF90089560E0CE
:1049E00088E00E94B642ABCF80E0D3E0A0E9CA16CF
:1049F000A0EDDA06A3E0EA06F104F0F2D2E0DCCFA3
:104A00008BE10E94040A0E94F81A8EE20E94040AB6
:104A1000CF93DF93FC01C0818091D802C81798F52D
:104A2000D0E0CC0FDD1FCC0FDD1FE091D602F0915E
:104A3000D702EC0FFD1F80819181892B21F5809198
:104A40004F0290915002892BF1F488E095E2918316
:104A5000808389E190E00E94D619FC01A091D602E2
:104A6000B091D702AC0FBD1F13969C938E931297F3
:104A700087E79CE19383828380E79CE19387828729
:104A8000DF91CF9108958BE00E94040ACF93DF93CA
:104A9000FC01C0818091D802C81740F5D0E0CC0F4E
:104AA000DD1FCC0FDD1FE091D602F091D702EC0F95
:104AB000FD1F80819181892BC9F480914F029091D3
:104AC0005002892B99F481E591E29183808386E0FD
:104AD00090E00E94D619E091D602F091D702EC0F37
:104AE000FD1F93838283DF91CF9108958BE00E9415
:104AF000040ACF93DF93FC01C0818091D802C817CC
:104B000040F5D0E0CC0FDD1FCC0FDD1FE091D602C9
:104B1000F091D702EC0FFD1F80819181892BC9F4A0
:104B200080914F0290915002892B99F489E795E288
:104B30009183808384E090E00E94D619E091D602B0
:104B4000F091D702EC0FFD1F93838283DF91CF9109
:104B500008958BE00E94040ACF92DF92FF920F9398
:104B60001F93CF93DF93EC018C819091D80289172A
:104B700070F590E0880F991F880F991FE091D60279
:104B8000F091D702E80FF91F808191818155914200
:104B9000F1F4C280D380F8840F2D10E0A8014D5F9E
:104BA0005F4F6CEA75E288810E94151AFC01D18280
:104BB000C082F2826C857D85A8010396DF91CF913A
:104BC0001F910F91FF90DF90CF900C94234B0E9488
:104BD000F81ACF92DF92EF92FF920F931F93CF9329
:104BE000DF93FC0180819091D802891708F053C0AF
:104BF00090E0880F991F880F991FA091D602B0915D
:104C0000D702A80FB91F8D919C9111978957954292
:104C100009F041C012960D90BC91A02DC481008571
:104C2000118513968C91139780FF28C01196ED90F3
:104C3000FC90F7016485C7010E94433ACC24CA94D2
:104C4000CC0ECC2381F0E8012196CC0EDD2ED11CB8
:104C500001C02196F8018E016081C7010E941D39B3
:104C6000CC15DD05B1F7C701DF91CF911F910F91F1
:104C7000FF90EF90DF90CF900C94913AA8016C2FA9
:104C80008C91DF91CF911F910F91FF90EF90DF906A
:104C9000CF900C940E460E94F81ACF92DF92EF92BA
:104CA000FF920F931F93CF93DF930F920F92CDB785
:104CB000DEB7FC018DB79EB79A838983D08080913F
:104CC000D802D81608F05CC08D2D90E0880F991F8F
:104CD000880F991FA091D602B091D702A80FB91FD3
:104CE0008D919C9111978957954209F049C0129670
:104CF0000D90BC91A02D648140855185C4848DB7F1
:104D00009EB78C1991090FB6F8949EBF0FBE8DBF48
:104D100001967C0113968C91139787012C2D80FDB1
:104D200029C08C910E947C46FF92EF921F92CF92F5
:104D30001F92DF9281E99DE09F938F930E94FA0B6F
:104D40008DB79EB708960FB6F8949EBF0FBE8DBF65
:104D500089819A810FB6F8949EBF0FBE8DBF0F90C8
:104D60000F90DF91CF911F910F91FF90EF90DF9007
:104D7000CF90089511968D919C910E94C73AD4CFFF
:104D80000E94F81A2F923F924F925F926F927F92F9
:104D90008F929F92AF92BF92CF92DF92EF92FF924B
:104DA0000F931F93CF93DF9300D000D00F920F92F9
:104DB000CDB7DEB7FC012DB73EB738872F83808192
:104DC0009091D802891708F0D8C090E0880F991FF9
:104DD000880F991FA091D602B091D702A80FB91FD2
:104DE0008D919C9111978957954209F0C6C01296F2
:104DF0008D919C919B838A8394819983A085B185B1
:104E0000BD83AC8384859585A685B78580FDB7C0B5
:104E10001C012D015694479437942794C088D1885B
:104E2000822C912CB981EB2EF12CC701880D991D94
:104E3000EDB7FEB7E81BF90B0FB6F894FEBF0FBE37
:104E4000EDBF2DB73EB72F5F3F4F39015901AA8102
:104E5000BB8113961C91A7016C817D81C9010E94C1
:104E6000234B11701E83E60CF71C11116EC08701D5
:104E7000222D4C815D816981AA81BB818C910E9428
:104E80007C468114910409F470C0F7018C0C9D1CC0
:104E9000A4019191D6018D916D0180958923DF0147
:104EA0008E939D01DA019D91AD01892BD9018C93DF
:104EB0008C149D0471F7B981B20DB983EE81EE2394
:104EC00009F453C0EA81FB81E180F280D7011C968E
:104ED0006C91C7010E94433AC980CA94B981D12C10
:104EE000EFEFCE1ADE0AC60CD71CBB2359F0F50132
:104EF0002FEFA21AB20A6081C7010E941D39CA149D
:104F0000DB04A9F7C7010E94913AEF81F8850FB63B
:104F1000F894FEBF0FBEEDBF28960FB6F894DEBF23
:104F20000FBECDBFDF91CF911F910F91FF90EF90FA
:104F3000DF90CF90BF90AF909F908F907F906F90B9
:104F40005F904F903F902F9008958701222D4C81C4
:104F50005D816981EA81FB81818192810E94C73AEA
:104F60008114910409F091CFADCFA3016981AA8189
:104F7000BB818C910E940E46C8CF0E94F81A8CE12A
:104F80000E94040AFF920F931F93CF93DF93EC01CB
:104F9000488559856A857B852C858C810E94504780
:104FA000F62E072F182F45E150E062EC77E288815A
:104FB0000E94151AFC01F086018712878889998959
:104FC000908B87878C899D89AE89BF8983879487D9
:104FD000A587B6878DE49DE193838283148A138A23
:104FE000128A118A80914F0290915002892B69F4A4
:104FF00080914C02883018F488E080934C02DF9155
:10500000CF911F910F91FF9008950E94411AFC01CA
:105010004481558166817781208580810C94504739
:10502000CF92DF92EF92FF920F931F93CF93DF9374
:10503000FC01A4A1B5A1109771F416861786108AF9
:10504000118A80E0DF91CF911F910F91FF90EF9037
:10505000DF90CF9008958D919C91119795A384A393
:1050600016968D919C9117979587848712960D912E
:105070001D912D913C911597AC01092E000C660BEA
:10508000770B400F511F621F731F40875187628744
:105090007387C4A518964D915C91199760E070E0F4
:1050A000C4FF13C0C480D580E680F7800C0D1D1DA1
:1050B0002E1D3F1D0483158326833783892BE9F535
:1050C000CF7DC4A78A019B0116C0C288D388E4881B
:1050D000F5880C0D1D1D2E1D3F1D028B138B248B7F
:1050E000358B04831583268337838A019B01000F48
:1050F000111F221F331F06871787208B318B00A1BA
:1051000011A122A133A11A968C911A9780FD17C084
:10511000400F511F621F731F40A351A362A373A3CB
:1051200080914A0290914B0211969C938E93B0937A
:105130004B02A0934A0281E085CFC062C2CF401BE0
:10514000510B620B730B40A351A362A373A3C58DD4
:10515000D68D878D8883E4CFCF92DF92EF92FF9236
:105160000F931F93CF93DF9300D000D0CDB7DEB75E
:105170008D839E83AD81BE815A96ED91FC915B97A4
:105180005C968C9180830E948E3169837A838B83B5
:105190009C83ED81FE81C688D788E08CF18CC60E99
:1051A000D71EE81EF91E86859785A089B1890197CB
:1051B000A109B10986879787A08BB18B80FF16C0A4
:1051C000ED81FE81C482D582E682F78281E00F9074
:1051D0000F900F900F900F900F90DF91CF911F9134
:1051E0000F91FF90EF90DF90CF900895892B8A2B3D
:1051F0008B2B41F100851185228533858289938926
:10520000A489B589800F911FA21FB31F828B938B36
:10521000A48BB58B44855585052E000C660B770B4A
:10522000400F511F621F731F40875187628773872A
:105230002B2F8C159D05AE052F0927FDC1CF6C01C5
:105240007D01BECF8D819E810E941028882309F4A4
:10525000BECFAD81BE8114964D915D916D917C91D3
:105260001797972F4C155D056E059F0997FFAFCFD8
:105270004C195D096E097F094038514C6F4F7F4FC3
:105280000CF09ECF88E10E94040ACF93DF93DC01EB
:105290008C919091D802891708F097C090E0880F00
:1052A000991F880F991FE091D602F091D702E80F5D
:1052B000F91F808191818456924209F086C0C28193
:1052C000D3818FB7F894E0914A02F0914B02309766
:1052D00009F480C02081318130934B0220934A022F
:1052E0008FBF14964D915D916D917C91179742837C
:1052F00053836483758318968D919C911997918738
:105300008087892B09F463C01C968D919C919783AB
:1053100086831286F8948CA5282F217081FB99270B
:1053200090F9291729F091E0892792859160928759
:105330004E855F8568897989452B462B472B39F542
:1053400083FF0EC080914A0290914B02918380832B
:10535000F0934B02E0934A027894DF91CF91089545
:105360008CA7118210828CA19DA1892B09F1AEA17D
:10537000BFA1ED93FC93FFA3EEA3CE010E941028E2
:10538000CE010E940E0A7894DF91CF9108958CA7E8
:10539000118210828CA19DA1892B79F0AEA1BFA1B1
:1053A000ED93FC93FFA3EEA37894DF91CF91089542
:1053B000FFA3EEA3FDA3ECA3E0CFFFA3EEA3FDA309
:1053C000ECA37894DF91CF9108950E94F81A87E1B9
:1053D0000E94040A0E943E1AAF92BF92CF92DF92BF
:1053E000EF92FF920F931F93CF93DF935C01842F73
:1053F000A901D5011596DC909D2D9670992349F150
:105400009D2D92700FEF080FBD2DB170CB2EF501C1
:1054100091112AC0308121813CBD2DBDB1118FC0B9
:10542000662309F4ABC08823A1F0FA019A012F5F2B
:105430003F4F200F311D81918EBD0DB407FEFDCF72
:105440008EB5DF0111978C93E217F307A1F7C11016
:1054500064C0DF91CF911F910F91FF90EF90DF908B
:10546000CF90BF90AF900895A081B1811696ED9135
:10547000FC91179718962C91189719963C913270B9
:105480007FB7F894311177C032812095232322838E
:105490007FBFC11054C0D501ED91FC918823C9F2A2
:1054A000CA010196080F192F111DDA013D91AD01B6
:1054B00028E090E08581A381B481718570FF7FC071
:1054C000C681D781708578837FB7F8941296FC9057
:1054D000129737FF95C08F2912968C937FBF330F99
:1054E000A681B78180858C93990FA081B1818C9121
:1054F0007281872371E0811101C070E0972B2150E8
:105500002111D8CF662319F0DA0111979C93401727
:10551000510759F6CC2009F49CCF3D2D3870D501A8
:105520001296ED91FC91139714968C919FB7F89475
:105530002281311168C0822B82839FBF8ACF3D2D8B
:105540003870D5011296ED91FC91139714962C9119
:105550007FB7F894311126C0A28120952A23228397
:105560007FBF992329F1D501ED91FC91CC24C394FF
:10557000811196CFD4CF3281232B89CF882309F490
:1055800068CF802F90E00196840F951FFA0120814B
:105590004F5F5F4F2EBD0DB407FEFDCF4817590773
:1055A000A9F7B8CFA2812A2B22837FBF9111DBCF2D
:1055B00061112CC0CC24C3948111E3CFB0CF7FB74D
:1055C000F8941296FC90129737FF17C08F29129605
:1055D0008C937FBF330FA681B78170857C93E92EB2
:1055E000EE0CC081D18188819281892391E0811163
:1055F00001C090E09E297C9382CF80958F21E7CFD8
:1056000080958F2169CF8095822396CF882309F4D6
:1056100086CFC62E0ACF0F931F93CF93DF93FC0143
:10562000C0818091D802C817B8F58C2F90E0880F00
:10563000991F880F991FA091D602B091D702A80F89
:10564000B91F8D919C9111978155914229F5D48173
:1056500010850185212F302F4D2F61E012968D91FD
:105660009C910E94EC290F931F931F92DF931F922E
:10567000CF9386E99DE09F938F930E94FA0B8DB79D
:105680009EB708960FB6F8949EBF0FBE8DBFDF91F0
:10569000CF911F910F9108950E94F81AFC0180810B
:1056A0009091D8028917D0F490E0880F991F880F45
:1056B000991FA091D602B091D702A80FB91F8D9162
:1056C0009C9111978155914249F4208531854481FF
:1056D00060E012968D919C910C94EC290E94F81A2E
:1056E000FC01A385B4854C918785982F977021E0A4
:1056F00030E001C0220F9A95EAF7A82FA695A6954B
:10570000A695AE0FBF2FB11D5A969C915A975585FD
:1057100045234423D1F0922B5A969C938F5F908916
:105720008917D8F4878784819581A681B7814689B6
:105730005789608D718D840F951FA61FB71F8483B5
:105740009583A683B78381E00895209592235A9686
:105750009C938F5F9089891728F3A085B1858285F6
:10576000968595FD14C09FB7F89412962C911297C8
:10577000822B12968C939FBF868580738960868763
:105780001092260281E08093D10280E008952FB725
:10579000F89412969C911297982B12969C931297BC
:1057A00011969C911197892B11968C932FBFE4CF62
:1057B000FC01A385B4858C91968525858223882359
:1057C000D1F094609687878591E0980F9787803411
:1057D000E0F484819581A681B78146895789608DDF
:1057E000718D840F951FA61FB71F84839583A68391
:1057F000B78381E0089592FFE6CF178680E79BE2AA
:1058000093838283CF010C94702B108AA085B1857D
:105810008285968595FF1BC02FB7F89412969C91B0
:105820001297982B12969C93129711969C91119710
:10583000892B11968C932FBF86858073896086870C
:105840001092260281E08093D10280E008959FB7F4
:10585000F89412962C911297822B12968C939FBFDC
:10586000EBCFFC0180899685292F20728823C9F10E
:1058700021111FC0178688ED9BE29383828346899E
:105880005789608D718D440F551F661F771F440F18
:10589000551F661F771F84819581A681B781840F6C
:1058A000951FA61FB71F84839583A683B78381E0C6
:1058B0000895A385B48585853FB7F894282F209552
:1058C00094FF27C012969C911297892B12968C9365
:1058D000129711968C911197822311968C933FBF4A
:1058E000C9CF9285A085B185211118C02FB7F89432
:1058F00012963C911297932B12969C932FBF9685EC
:105900009073996096871092260291E09093D1024D
:10591000089512968C9112978223D8CF3FB7F894AE
:1059200012962C911297292B12962C93129711965E
:105930002C911197922B11969C933FBFE0CFCF9261
:10594000DF92EF92FF92CF93DF93DC011896ED91F7
:10595000FC9119971A968C911A9780831E96CC9178
:105960001E9781E0C8271E96CC931E975696CD9021
:10597000DD90ED90FC9059971F962C911F972F5F0B
:105980005196DC9151972D1708F05CC0E22FE695F7
:10599000E695E695EA0FFB2FF11D828D90E0322F00
:1059A000377002C0959587953A95E2F78C27B70135
:1059B000A60180FF14C038C0E22FE695E695E69573
:1059C000EA0FFB2FF11D828D90E0322F377002C05D
:1059D000959587953A95E2F78C2780FD25C04C0D6B
:1059E0005D1D6E1D7F1D2F5F2D1730F381E39CE23F
:1059F00013969C938E9312971496CD90DD90ED9014
:105A0000FC9017974C0D5D1D6E1D7F1D14964D93D8
:105A10005D936D937C93179781E0DF91CF91FF9019
:105A2000EF90DF90CF9008951F962C931F971496B8
:105A3000CD90DD90ED90FC9017974C0D5D1D6E1D87
:105A40007F1DE4CFB701A601D1CFCF93DF93FC0137
:105A500084819581A681B781448955896689778932
:105A6000C58DD68D2881C42FC170378D232331E099
:105A7000211101C030E0C31761F04F5F5F4F6F4FDE
:105A80007F4F448B558B668B778B808F918FA28F46
:105A9000B38F4089518962897389272F4817590725
:105AA0006A072B0B27FD10C04085518562857385E1
:105AB000840F951FA61FB71F84839583A683B78382
:105AC00081E0DF91CF910895248D2160248F44855A
:105AD000558566857785840F951FA61FB71F808B18
